{
  "_format": "hh-sol-artifact-1",
  "contractName": "PaimaL2Contract",
  "sourceName": "contracts/PaimaL2Contract.sol",
  "abi": [
    {
      "type": "constructor",
      "inputs": [
        {
          "name": "_owner",
          "type": "address",
          "internalType": "address"
        },
        {
          "name": "_fee",
          "type": "uint256",
          "internalType": "uint256"
        }
      ],
      "stateMutability": "nonpayable"
    },
    {
      "type": "function",
      "name": "fee",
      "inputs": [],
      "outputs": [
        {
          "name": "",
          "type": "uint256",
          "internalType": "uint256"
        }
      ],
      "stateMutability": "view"
    },
    {
      "type": "function",
      "name": "owner",
      "inputs": [],
      "outputs": [
        {
          "name": "",
          "type": "address",
          "internalType": "address"
        }
      ],
      "stateMutability": "view"
    },
    {
      "type": "function",
      "name": "paimaSubmitGameInput",
      "inputs": [
        {
          "name": "data",
          "type": "bytes",
          "internalType": "bytes"
        }
      ],
      "outputs": [],
      "stateMutability": "payable"
    },
    {
      "type": "function",
      "name": "setFee",
      "inputs": [
        {
          "name": "newFee",
          "type": "uint256",
          "internalType": "uint256"
        }
      ],
      "outputs": [],
      "stateMutability": "nonpayable"
    },
    {
      "type": "function",
      "name": "setOwner",
      "inputs": [
        {
          "name": "newOwner",
          "type": "address",
          "internalType": "address"
        }
      ],
      "outputs": [],
      "stateMutability": "nonpayable"
    },
    {
      "type": "function",
      "name": "withdrawFunds",
      "inputs": [],
      "outputs": [],
      "stateMutability": "nonpayable"
    },
    {
      "type": "event",
      "name": "PaimaGameInteraction",
      "inputs": [
        {
          "name": "userAddress",
          "type": "address",
          "indexed": true,
          "internalType": "address"
        },
        {
          "name": "data",
          "type": "bytes",
          "indexed": false,
          "internalType": "bytes"
        },
        {
          "name": "value",
          "type": "uint256",
          "indexed": false,
          "internalType": "uint256"
        }
      ],
      "anonymous": false
    },
    {
      "type": "error",
      "name": "FailedCall",
      "inputs": []
    },
    {
      "type": "error",
      "name": "InsufficientBalance",
      "inputs": [
        {
          "name": "balance",
          "type": "uint256",
          "internalType": "uint256"
        },
        {
          "name": "needed",
          "type": "uint256",
          "internalType": "uint256"
        }
      ]
    }
  ],
  "bytecode": "0x608060405234801561001057600080fd5b50604051610bba380380610bba83398181016040528101906100329190610119565b816000806101000a81548173ffffffffffffffffffffffffffffffffffffffff021916908373ffffffffffffffffffffffffffffffffffffffff160217905550806001819055505050610159565b600080fd5b600073ffffffffffffffffffffffffffffffffffffffff82169050919050565b60006100b082610085565b9050919050565b6100c0816100a5565b81146100cb57600080fd5b50565b6000815190506100dd816100b7565b92915050565b6000819050919050565b6100f6816100e3565b811461010157600080fd5b50565b600081519050610113816100ed565b92915050565b600080604083850312156101305761012f610080565b5b600061013e858286016100ce565b925050602061014f85828601610104565b9150509250929050565b610a52806101686000396000f3fe6080604052600436106100555760003560e01c806313af40351461005a57806324600fc3146100835780633804df031461009a57806369fe0e2d146100b65780638da5cb5b146100df578063ddca3f431461010a575b600080fd5b34801561006657600080fd5b50610081600480360381019061007c91906105a0565b610135565b005b34801561008f57600080fd5b50610098610206565b005b6100b460048036038101906100af9190610632565b6102ec565b005b3480156100c257600080fd5b506100dd60048036038101906100d891906106b5565b610387565b005b3480156100eb57600080fd5b506100f461041f565b60405161010191906106f1565b60405180910390f35b34801561011657600080fd5b5061011f610443565b60405161012c919061071b565b60405180910390f35b60008054906101000a900473ffffffffffffffffffffffffffffffffffffffff1673ffffffffffffffffffffffffffffffffffffffff163373ffffffffffffffffffffffffffffffffffffffff16146101c3576040517f08c379a00000000000000000000000000000000000000000000000000000000081526004016101ba90610793565b60405180910390fd5b806000806101000a81548173ffffffffffffffffffffffffffffffffffffffff021916908373ffffffffffffffffffffffffffffffffffffffff16021790555050565b60008054906101000a900473ffffffffffffffffffffffffffffffffffffffff1673ffffffffffffffffffffffffffffffffffffffff163373ffffffffffffffffffffffffffffffffffffffff1614610294576040517f08c379a000000000000000000000000000000000000000000000000000000000815260040161028b906107ff565b60405180910390fd5b60008060009054906101000a900473ffffffffffffffffffffffffffffffffffffffff16905060004790506102e8818373ffffffffffffffffffffffffffffffffffffffff1661044990919063ffffffff16565b5050565b600154341015610331576040517f08c379a000000000000000000000000000000000000000000000000000000000815260040161032890610891565b60405180910390fd5b3373ffffffffffffffffffffffffffffffffffffffff167fffa7cf79b6173c04d5ec2b41bce25acc6e48f9cf86349011288bab7da23fc51783833460405161037b9392919061090f565b60405180910390a25050565b60008054906101000a900473ffffffffffffffffffffffffffffffffffffffff1673ffffffffffffffffffffffffffffffffffffffff163373ffffffffffffffffffffffffffffffffffffffff1614610415576040517f08c379a000000000000000000000000000000000000000000000000000000000815260040161040c9061098d565b60405180910390fd5b8060018190555050565b60008054906101000a900473ffffffffffffffffffffffffffffffffffffffff1681565b60015481565b804710156104905747816040517fcf4791810000000000000000000000000000000000000000000000000000000081526004016104879291906109ad565b60405180910390fd5b60008273ffffffffffffffffffffffffffffffffffffffff16826040516104b690610a07565b60006040518083038185875af1925050503d80600081146104f3576040519150601f19603f3d011682016040523d82523d6000602084013e6104f8565b606091505b5050905080610533576040517fd6bda27500000000000000000000000000000000000000000000000000000000815260040160405180910390fd5b505050565b600080fd5b600080fd5b600073ffffffffffffffffffffffffffffffffffffffff82169050919050565b600061056d82610542565b9050919050565b61057d81610562565b811461058857600080fd5b50565b60008135905061059a81610574565b92915050565b6000602082840312156105b6576105b5610538565b5b60006105c48482850161058b565b91505092915050565b600080fd5b600080fd5b600080fd5b60008083601f8401126105f2576105f16105cd565b5b8235905067ffffffffffffffff81111561060f5761060e6105d2565b5b60208301915083600182028301111561062b5761062a6105d7565b5b9250929050565b6000806020838503121561064957610648610538565b5b600083013567ffffffffffffffff8111156106675761066661053d565b5b610673858286016105dc565b92509250509250929050565b6000819050919050565b6106928161067f565b811461069d57600080fd5b50565b6000813590506106af81610689565b92915050565b6000602082840312156106cb576106ca610538565b5b60006106d9848285016106a0565b91505092915050565b6106eb81610562565b82525050565b600060208201905061070660008301846106e2565b92915050565b6107158161067f565b82525050565b6000602082019050610730600083018461070c565b92915050565b600082825260208201905092915050565b7f4f6e6c79206f776e65722063616e206368616e6765206f776e65720000000000600082015250565b600061077d601b83610736565b915061078882610747565b602082019050919050565b600060208201905081810360008301526107ac81610770565b9050919050565b7f4f6e6c79206f776e65722063616e2077697468647261772066756e6473000000600082015250565b60006107e9601d83610736565b91506107f4826107b3565b602082019050919050565b60006020820190508181036000830152610818816107dc565b9050919050565b7f53756666696369656e742066756e647320726571756972656420746f2073756260008201527f6d69742067616d6520696e707574000000000000000000000000000000000000602082015250565b600061087b602e83610736565b91506108868261081f565b604082019050919050565b600060208201905081810360008301526108aa8161086e565b9050919050565b600082825260208201905092915050565b82818337600083830152505050565b6000601f19601f8301169050919050565b60006108ee83856108b1565b93506108fb8385846108c2565b610904836108d1565b840190509392505050565b6000604082019050818103600083015261092a8185876108e2565b9050610939602083018461070c565b949350505050565b7f4f6e6c79206f776e65722063616e206368616e67652066656500000000000000600082015250565b6000610977601983610736565b915061098282610941565b602082019050919050565b600060208201905081810360008301526109a68161096a565b9050919050565b60006040820190506109c2600083018561070c565b6109cf602083018461070c565b9392505050565b600081905092915050565b50565b60006109f16000836109d6565b91506109fc826109e1565b600082019050919050565b6000610a12826109e4565b915081905091905056fea26469706673582212205c31f824432e6edaf50c5909ad07b00497c5d4a7f9b8f122f337476c7a11bae664736f6c634300081e0033",
  "linkReferences": {},
  "deployedLinkReferences": {},
  "immutableReferences": {},
  "buildInfoId": "stub-build-info"
}