{
  "_format": "hh-sol-artifact-1",
  "contractName": "GoFishLobby",
  "sourceName": "contracts/GoFishLobby.sol",
  "abi": [
    {
      "type": "function",
      "name": "activeLobbies",
      "inputs": [
        {
          "name": "",
          "type": "uint256",
          "internalType": "uint256"
        }
      ],
      "outputs": [
        {
          "name": "",
          "type": "uint256",
          "internalType": "uint256"
        }
      ],
      "stateMutability": "view"
    },
    {
      "type": "function",
      "name": "createLobby",
      "inputs": [
        {
          "name": "maxPlayers",
          "type": "uint8",
          "internalType": "uint8"
        }
      ],
      "outputs": [
        {
          "name": "",
          "type": "uint256",
          "internalType": "uint256"
        }
      ],
      "stateMutability": "nonpayable"
    },
    {
      "type": "function",
      "name": "getActiveLobbies",
      "inputs": [],
      "outputs": [
        {
          "name": "",
          "type": "uint256[]",
          "internalType": "uint256[]"
        }
      ],
      "stateMutability": "view"
    },
    {
      "type": "function",
      "name": "getActiveLobbiesCount",
      "inputs": [],
      "outputs": [
        {
          "name": "",
          "type": "uint256",
          "internalType": "uint256"
        }
      ],
      "stateMutability": "view"
    },
    {
      "type": "function",
      "name": "getLobby",
      "inputs": [
        {
          "name": "lobbyId",
          "type": "uint256",
          "internalType": "uint256"
        }
      ],
      "outputs": [
        {
          "name": "",
          "type": "tuple",
          "internalType": "struct GoFishLobby.Lobby",
          "components": [
            {
              "name": "id",
              "type": "uint256",
              "internalType": "uint256"
            },
            {
              "name": "host",
              "type": "address",
              "internalType": "address"
            },
            {
              "name": "maxPlayers",
              "type": "uint8",
              "internalType": "uint8"
            },
            {
              "name": "currentPlayers",
              "type": "uint8",
              "internalType": "uint8"
            },
            {
              "name": "players",
              "type": "address[]",
              "internalType": "address[]"
            },
            {
              "name": "isActive",
              "type": "bool",
              "internalType": "bool"
            },
            {
              "name": "createdAt",
              "type": "uint256",
              "internalType": "uint256"
            }
          ]
        }
      ],
      "stateMutability": "view"
    },
    {
      "type": "function",
      "name": "getPlayerStats",
      "inputs": [
        {
          "name": "player",
          "type": "address",
          "internalType": "address"
        }
      ],
      "outputs": [
        {
          "name": "",
          "type": "tuple",
          "internalType": "struct GoFishLobby.PlayerStats",
          "components": [
            {
              "name": "gamesPlayed",
              "type": "uint256",
              "internalType": "uint256"
            },
            {
              "name": "gamesWon",
              "type": "uint256",
              "internalType": "uint256"
            },
            {
              "name": "totalBooks",
              "type": "uint256",
              "internalType": "uint256"
            },
            {
              "name": "rating",
              "type": "uint256",
              "internalType": "uint256"
            }
          ]
        }
      ],
      "stateMutability": "view"
    },
    {
      "type": "function",
      "name": "isPlayerInLobby",
      "inputs": [
        {
          "name": "lobbyId",
          "type": "uint256",
          "internalType": "uint256"
        },
        {
          "name": "player",
          "type": "address",
          "internalType": "address"
        }
      ],
      "outputs": [
        {
          "name": "",
          "type": "bool",
          "internalType": "bool"
        }
      ],
      "stateMutability": "view"
    },
    {
      "type": "function",
      "name": "joinLobby",
      "inputs": [
        {
          "name": "lobbyId",
          "type": "uint256",
          "internalType": "uint256"
        }
      ],
      "outputs": [],
      "stateMutability": "nonpayable"
    },
    {
      "type": "function",
      "name": "leaveLobby",
      "inputs": [
        {
          "name": "lobbyId",
          "type": "uint256",
          "internalType": "uint256"
        }
      ],
      "outputs": [],
      "stateMutability": "nonpayable"
    },
    {
      "type": "function",
      "name": "lobbies",
      "inputs": [
        {
          "name": "",
          "type": "uint256",
          "internalType": "uint256"
        }
      ],
      "outputs": [
        {
          "name": "id",
          "type": "uint256",
          "internalType": "uint256"
        },
        {
          "name": "host",
          "type": "address",
          "internalType": "address"
        },
        {
          "name": "maxPlayers",
          "type": "uint8",
          "internalType": "uint8"
        },
        {
          "name": "currentPlayers",
          "type": "uint8",
          "internalType": "uint8"
        },
        {
          "name": "isActive",
          "type": "bool",
          "internalType": "bool"
        },
        {
          "name": "createdAt",
          "type": "uint256",
          "internalType": "uint256"
        }
      ],
      "stateMutability": "view"
    },
    {
      "type": "function",
      "name": "lobbyPlayers",
      "inputs": [
        {
          "name": "",
          "type": "uint256",
          "internalType": "uint256"
        },
        {
          "name": "",
          "type": "address",
          "internalType": "address"
        }
      ],
      "outputs": [
        {
          "name": "",
          "type": "bool",
          "internalType": "bool"
        }
      ],
      "stateMutability": "view"
    },
    {
      "type": "function",
      "name": "playerStats",
      "inputs": [
        {
          "name": "",
          "type": "address",
          "internalType": "address"
        }
      ],
      "outputs": [
        {
          "name": "gamesPlayed",
          "type": "uint256",
          "internalType": "uint256"
        },
        {
          "name": "gamesWon",
          "type": "uint256",
          "internalType": "uint256"
        },
        {
          "name": "totalBooks",
          "type": "uint256",
          "internalType": "uint256"
        },
        {
          "name": "rating",
          "type": "uint256",
          "internalType": "uint256"
        }
      ],
      "stateMutability": "view"
    },
    {
      "type": "function",
      "name": "startGame",
      "inputs": [
        {
          "name": "lobbyId",
          "type": "uint256",
          "internalType": "uint256"
        }
      ],
      "outputs": [],
      "stateMutability": "nonpayable"
    },
    {
      "type": "function",
      "name": "updatePlayerStats",
      "inputs": [
        {
          "name": "player",
          "type": "address",
          "internalType": "address"
        },
        {
          "name": "won",
          "type": "bool",
          "internalType": "bool"
        },
        {
          "name": "books",
          "type": "uint256",
          "internalType": "uint256"
        }
      ],
      "outputs": [],
      "stateMutability": "nonpayable"
    },
    {
      "type": "event",
      "name": "GameStarted",
      "inputs": [
        {
          "name": "lobbyId",
          "type": "uint256",
          "indexed": true,
          "internalType": "uint256"
        }
      ],
      "anonymous": false
    },
    {
      "type": "event",
      "name": "LobbyClosed",
      "inputs": [
        {
          "name": "lobbyId",
          "type": "uint256",
          "indexed": true,
          "internalType": "uint256"
        }
      ],
      "anonymous": false
    },
    {
      "type": "event",
      "name": "LobbyCreated",
      "inputs": [
        {
          "name": "lobbyId",
          "type": "uint256",
          "indexed": true,
          "internalType": "uint256"
        },
        {
          "name": "host",
          "type": "address",
          "indexed": true,
          "internalType": "address"
        },
        {
          "name": "maxPlayers",
          "type": "uint8",
          "indexed": false,
          "internalType": "uint8"
        }
      ],
      "anonymous": false
    },
    {
      "type": "event",
      "name": "PlayerJoined",
      "inputs": [
        {
          "name": "lobbyId",
          "type": "uint256",
          "indexed": true,
          "internalType": "uint256"
        },
        {
          "name": "player",
          "type": "address",
          "indexed": true,
          "internalType": "address"
        }
      ],
      "anonymous": false
    },
    {
      "type": "event",
      "name": "PlayerLeft",
      "inputs": [
        {
          "name": "lobbyId",
          "type": "uint256",
          "indexed": true,
          "internalType": "uint256"
        },
        {
          "name": "player",
          "type": "address",
          "indexed": true,
          "internalType": "address"
        }
      ],
      "anonymous": false
    },
    {
      "type": "event",
      "name": "StatsUpdated",
      "inputs": [
        {
          "name": "player",
          "type": "address",
          "indexed": true,
          "internalType": "address"
        },
        {
          "name": "gamesPlayed",
          "type": "uint256",
          "indexed": false,
          "internalType": "uint256"
        },
        {
          "name": "gamesWon",
          "type": "uint256",
          "indexed": false,
          "internalType": "uint256"
        }
      ],
      "anonymous": false
    }
  ],
  "bytecode": "0x6080604052348015600f57600080fd5b506122228061001f6000396000f3fe608060405234801561001057600080fd5b50600436106100ea5760003560e01c8063948428f01161008c578063cdafbbb611610066578063cdafbbb614610288578063e5ed1d59146102bb578063e9173b3a146102d7578063ff465523146102f3576100ea565b8063948428f01461022057806396edd5001461023c578063bb214aaa1461026c576100ea565b8063559ab8cc116100c8578063559ab8cc1461017f5780635b7c2a14146101af5780635c95e301146101cd5780636e8fb4c6146101eb576100ea565b80631eab6ee8146100ef5780631faae2c91461011f5780634fd66eae1461014f575b600080fd5b610109600480360381019061010491906116fa565b610323565b6040516101169190611736565b60405180910390f35b6101396004803603810190610134919061178a565b610347565b6040516101469190611736565b60405180910390f35b61016960048036038101906101649190611815565b6106f5565b60405161017691906118a6565b60405180910390f35b610199600480360381019061019491906118c1565b610776565b6040516101a6919061191c565b60405180910390f35b6101b76107de565b6040516101c49190611736565b60405180910390f35b6101d56107eb565b6040516101e291906119e6565b60405180910390f35b610205600480360381019061020091906116fa565b610843565b60405161021796959493929190611a26565b60405180910390f35b61023a600480360381019061023591906116fa565b6108c6565b005b610256600480360381019061025191906118c1565b610cca565b604051610263919061191c565b60405180910390f35b61028660048036038101906102819190611ab3565b610cf9565b005b6102a2600480360381019061029d9190611815565b610e3b565b6040516102b29493929190611b06565b60405180910390f35b6102d560048036038101906102d091906116fa565b610e6b565b005b6102f160048036038101906102ec91906116fa565b611014565b005b61030d600480360381019061030891906116fa565b6112d4565b60405161031a9190611cc3565b60405180910390f35b6004818154811061033357600080fd5b906000526020600020016000915090505481565b600060028260ff1610158015610361575060068260ff1611155b6103a0576040517f08c379a000000000000000000000000000000000000000000000000000000000815260040161039790611d42565b60405180910390fd5b6000808154809291906103b290611d91565b91905055506000805490506000600167ffffffffffffffff8111156103da576103d9611dd9565b5b6040519080825280602002602001820160405280156104085781602001602082028036833780820191505090505b50905033816000815181106104205761041f611e08565b5b602002602001019073ffffffffffffffffffffffffffffffffffffffff16908173ffffffffffffffffffffffffffffffffffffffff16815250506040518060e001604052808381526020013373ffffffffffffffffffffffffffffffffffffffff1681526020018560ff168152602001600160ff16815260200182815260200160011515815260200142815250600160008481526020019081526020016000206000820151816000015560208201518160010160006101000a81548173ffffffffffffffffffffffffffffffffffffffff021916908373ffffffffffffffffffffffffffffffffffffffff16021790555060408201518160010160146101000a81548160ff021916908360ff16021790555060608201518160010160156101000a81548160ff021916908360ff160217905550608082015181600201908051906020019061056f929190611595565b5060a08201518160030160006101000a81548160ff02191690831515021790555060c0820151816004015590505060016003600084815260200190815260200160002060003373ffffffffffffffffffffffffffffffffffffffff1673ffffffffffffffffffffffffffffffffffffffff16815260200190815260200160002060006101000a81548160ff021916908315150217905550600482908060018154018082558091505060019003906000526020600020016000909190919091505560016004805490506106419190611e37565b60056000848152602001908152602001600020819055503373ffffffffffffffffffffffffffffffffffffffff16827f41cb1a5f5e43e6d3b0bc486e69de8bef216000ccad8a43cbb787f85d495ccdb38660405161069f9190611e6b565b60405180910390a33373ffffffffffffffffffffffffffffffffffffffff16827f87969bc7faf902221a147b95ceba76e011c5efb0339a0a8ee7a2bb82d9cfbbd660405160405180910390a38192505050919050565b6106fd61161f565b600260008373ffffffffffffffffffffffffffffffffffffffff1673ffffffffffffffffffffffffffffffffffffffff1681526020019081526020016000206040518060800160405290816000820154815260200160018201548152602001600282015481526020016003820154815250509050919050565b60006003600084815260200190815260200160002060008373ffffffffffffffffffffffffffffffffffffffff1673ffffffffffffffffffffffffffffffffffffffff16815260200190815260200160002060009054906101000a900460ff16905092915050565b6000600480549050905090565b6060600480548060200260200160405190810160405280929190818152602001828054801561083957602002820191906000526020600020905b815481526020019060010190808311610825575b5050505050905090565b60016020528060005260406000206000915090508060000154908060010160009054906101000a900473ffffffffffffffffffffffffffffffffffffffff16908060010160149054906101000a900460ff16908060010160159054906101000a900460ff16908060030160009054906101000a900460ff16908060040154905086565b60006001600083815260200190815260200160002090508060030160009054906101000a900460ff1661092e576040517f08c379a000000000000000000000000000000000000000000000000000000000815260040161092590611ed2565b60405180910390fd5b6003600083815260200190815260200160002060003373ffffffffffffffffffffffffffffffffffffffff1673ffffffffffffffffffffffffffffffffffffffff16815260200190815260200160002060009054906101000a900460ff166109cb576040517f08c379a00000000000000000000000000000000000000000000000000000000081526004016109c290611f3e565b60405180910390fd5b60006003600084815260200190815260200160002060003373ffffffffffffffffffffffffffffffffffffffff1673ffffffffffffffffffffffffffffffffffffffff16815260200190815260200160002060006101000a81548160ff02191690831515021790555080600101601581819054906101000a900460ff1680929190610a5590611f5e565b91906101000a81548160ff021916908360ff1602179055505060005b8160020180549050811015610c00573373ffffffffffffffffffffffffffffffffffffffff16826002018281548110610aad57610aac611e08565b5b9060005260206000200160009054906101000a900473ffffffffffffffffffffffffffffffffffffffff1673ffffffffffffffffffffffffffffffffffffffff1603610bf3578160020160018360020180549050610b0b9190611e37565b81548110610b1c57610b1b611e08565b5b9060005260206000200160009054906101000a900473ffffffffffffffffffffffffffffffffffffffff16826002018281548110610b5d57610b5c611e08565b5b9060005260206000200160006101000a81548173ffffffffffffffffffffffffffffffffffffffff021916908373ffffffffffffffffffffffffffffffffffffffff16021790555081600201805480610bb957610bb8611f87565b5b6001900381819060005260206000200160006101000a81549073ffffffffffffffffffffffffffffffffffffffff02191690559055610c00565b8080600101915050610a71565b503373ffffffffffffffffffffffffffffffffffffffff16827fb2bd643202385c64d9814c6c3fa61b1ba098d6652292e9d9a6f1a0cdae6eb82460405160405180910390a360008160010160159054906101000a900460ff1660ff161480610cb757508060010160009054906101000a900473ffffffffffffffffffffffffffffffffffffffff1673ffffffffffffffffffffffffffffffffffffffff163373ffffffffffffffffffffffffffffffffffffffff16145b15610cc657610cc58261144e565b5b5050565b60036020528160005260406000206020528060005260406000206000915091509054906101000a900460ff1681565b6000600260008573ffffffffffffffffffffffffffffffffffffffff1673ffffffffffffffffffffffffffffffffffffffff1681526020019081526020016000209050806000016000815480929190610d5190611d91565b919050555081816002016000828254610d6a9190611fb6565b925050819055508215610db257806001016000815480929190610d8c90611d91565b9190505550600a816003016000828254610da69190611fb6565b92505081905550610ddd565b600581600301541115610ddc576005816003016000828254610dd49190611e37565b925050819055505b5b8373ffffffffffffffffffffffffffffffffffffffff167f80140d6bcee83a25999242a95412ea6b9754c623fc171e8d4c86c8392c053ad982600001548360010154604051610e2d929190611fea565b60405180910390a250505050565b60026020528060005260406000206000915090508060000154908060010154908060020154908060030154905084565b60006001600083815260200190815260200160002090508060030160009054906101000a900460ff16610ed3576040517f08c379a0000000000000000000000000000000000000000000000000000000008152600401610eca90611ed2565b60405180910390fd5b8060010160009054906101000a900473ffffffffffffffffffffffffffffffffffffffff1673ffffffffffffffffffffffffffffffffffffffff163373ffffffffffffffffffffffffffffffffffffffff1614610f65576040517f08c379a0000000000000000000000000000000000000000000000000000000008152600401610f5c9061205f565b60405180910390fd5b60028160010160159054906101000a900460ff1660ff161015610fbd576040517f08c379a0000000000000000000000000000000000000000000000000000000008152600401610fb4906120cb565b60405180910390fd5b60008160030160006101000a81548160ff021916908315150217905550610fe3826114bc565b817f50ad08f58a27f2851d7e3a1b3a6a46b290f2ce677e99642d30ff639721e7779060405160405180910390a25050565b60006001600083815260200190815260200160002090508060030160009054906101000a900460ff1661107c576040517f08c379a000000000000000000000000000000000000000000000000000000000815260040161107390611ed2565b60405180910390fd5b8060010160149054906101000a900460ff1660ff168160010160159054906101000a900460ff1660ff16106110e6576040517f08c379a00000000000000000000000000000000000000000000000000000000081526004016110dd90612137565b60405180910390fd5b6003600083815260200190815260200160002060003373ffffffffffffffffffffffffffffffffffffffff1673ffffffffffffffffffffffffffffffffffffffff16815260200190815260200160002060009054906101000a900460ff1615611184576040517f08c379a000000000000000000000000000000000000000000000000000000000815260040161117b906121a3565b60405180910390fd5b80600201339080600181540180825580915050600190039060005260206000200160009091909190916101000a81548173ffffffffffffffffffffffffffffffffffffffff021916908373ffffffffffffffffffffffffffffffffffffffff16021790555080600101601581819054906101000a900460ff168092919061120a906121c3565b91906101000a81548160ff021916908360ff1602179055505060016003600084815260200190815260200160002060003373ffffffffffffffffffffffffffffffffffffffff1673ffffffffffffffffffffffffffffffffffffffff16815260200190815260200160002060006101000a81548160ff0219169083151502179055503373ffffffffffffffffffffffffffffffffffffffff16827f87969bc7faf902221a147b95ceba76e011c5efb0339a0a8ee7a2bb82d9cfbbd660405160405180910390a35050565b6112dc611647565b600160008381526020019081526020016000206040518060e0016040529081600082015481526020016001820160009054906101000a900473ffffffffffffffffffffffffffffffffffffffff1673ffffffffffffffffffffffffffffffffffffffff1673ffffffffffffffffffffffffffffffffffffffff1681526020016001820160149054906101000a900460ff1660ff1660ff1681526020016001820160159054906101000a900460ff1660ff1660ff1681526020016002820180548060200260200160405190810160405280929190818152602001828054801561141957602002820191906000526020600020905b8160009054906101000a900473ffffffffffffffffffffffffffffffffffffffff1673ffffffffffffffffffffffffffffffffffffffff16815260200190600101908083116113cf575b505050505081526020016003820160009054906101000a900460ff161515151581526020016004820154815250509050919050565b600060016000838152602001908152602001600020905060008160030160006101000a81548160ff02191690831515021790555061148b826114bc565b817f9f95e402f4fc9f7176ebc701895fe5aab299ae1ac65742f07ad5536d5339554f60405160405180910390a25050565b600060056000838152602001908152602001600020549050600060016004805490506114e89190611e37565b90508082146115515760006004828154811061150757611506611e08565b5b90600052602060002001549050806004848154811061152957611528611e08565b5b9060005260206000200181905550826005600083815260200190815260200160002081905550505b600480548061156357611562611f87565b5b600190038181906000526020600020016000905590556005600084815260200190815260200160002060009055505050565b82805482825590600052602060002090810192821561160e579160200282015b8281111561160d5782518260006101000a81548173ffffffffffffffffffffffffffffffffffffffff021916908373ffffffffffffffffffffffffffffffffffffffff160217905550916020019190600101906115b5565b5b50905061161b91906116a2565b5090565b6040518060800160405280600081526020016000815260200160008152602001600081525090565b6040518060e0016040528060008152602001600073ffffffffffffffffffffffffffffffffffffffff168152602001600060ff168152602001600060ff16815260200160608152602001600015158152602001600081525090565b5b808211156116bb5760008160009055506001016116a3565b5090565b600080fd5b6000819050919050565b6116d7816116c4565b81146116e257600080fd5b50565b6000813590506116f4816116ce565b92915050565b6000602082840312156117105761170f6116bf565b5b600061171e848285016116e5565b91505092915050565b611730816116c4565b82525050565b600060208201905061174b6000830184611727565b92915050565b600060ff82169050919050565b61176781611751565b811461177257600080fd5b50565b6000813590506117848161175e565b92915050565b6000602082840312156117a05761179f6116bf565b5b60006117ae84828501611775565b91505092915050565b600073ffffffffffffffffffffffffffffffffffffffff82169050919050565b60006117e2826117b7565b9050919050565b6117f2816117d7565b81146117fd57600080fd5b50565b60008135905061180f816117e9565b92915050565b60006020828403121561182b5761182a6116bf565b5b600061183984828501611800565b91505092915050565b61184b816116c4565b82525050565b6080820160008201516118676000850182611842565b50602082015161187a6020850182611842565b50604082015161188d6040850182611842565b5060608201516118a06060850182611842565b50505050565b60006080820190506118bb6000830184611851565b92915050565b600080604083850312156118d8576118d76116bf565b5b60006118e6858286016116e5565b92505060206118f785828601611800565b9150509250929050565b60008115159050919050565b61191681611901565b82525050565b6000602082019050611931600083018461190d565b92915050565b600081519050919050565b600082825260208201905092915050565b6000819050602082019050919050565b600061196f8383611842565b60208301905092915050565b6000602082019050919050565b600061199382611937565b61199d8185611942565b93506119a883611953565b8060005b838110156119d95781516119c08882611963565b97506119cb8361197b565b9250506001810190506119ac565b5085935050505092915050565b60006020820190508181036000830152611a008184611988565b905092915050565b611a11816117d7565b82525050565b611a2081611751565b82525050565b600060c082019050611a3b6000830189611727565b611a486020830188611a08565b611a556040830187611a17565b611a626060830186611a17565b611a6f608083018561190d565b611a7c60a0830184611727565b979650505050505050565b611a9081611901565b8114611a9b57600080fd5b50565b600081359050611aad81611a87565b92915050565b600080600060608486031215611acc57611acb6116bf565b5b6000611ada86828701611800565b9350506020611aeb86828701611a9e565b9250506040611afc868287016116e5565b9150509250925092565b6000608082019050611b1b6000830187611727565b611b286020830186611727565b611b356040830185611727565b611b426060830184611727565b95945050505050565b611b54816117d7565b82525050565b611b6381611751565b82525050565b600081519050919050565b600082825260208201905092915050565b6000819050602082019050919050565b6000611ba18383611b4b565b60208301905092915050565b6000602082019050919050565b6000611bc582611b69565b611bcf8185611b74565b9350611bda83611b85565b8060005b83811015611c0b578151611bf28882611b95565b9750611bfd83611bad565b925050600181019050611bde565b5085935050505092915050565b611c2181611901565b82525050565b600060e083016000830151611c3f6000860182611842565b506020830151611c526020860182611b4b565b506040830151611c656040860182611b5a565b506060830151611c786060860182611b5a565b5060808301518482036080860152611c908282611bba565b91505060a0830151611ca560a0860182611c18565b5060c0830151611cb860c0860182611842565b508091505092915050565b60006020820190508181036000830152611cdd8184611c27565b905092915050565b600082825260208201905092915050565b7f496e76616c696420706c6179657220636f756e74000000000000000000000000600082015250565b6000611d2c601483611ce5565b9150611d3782611cf6565b602082019050919050565b60006020820190508181036000830152611d5b81611d1f565b9050919050565b7f4e487b7100000000000000000000000000000000000000000000000000000000600052601160045260246000fd5b6000611d9c826116c4565b91507fffffffffffffffffffffffffffffffffffffffffffffffffffffffffffffffff8203611dce57611dcd611d62565b5b600182019050919050565b7f4e487b7100000000000000000000000000000000000000000000000000000000600052604160045260246000fd5b7f4e487b7100000000000000000000000000000000000000000000000000000000600052603260045260246000fd5b6000611e42826116c4565b9150611e4d836116c4565b9250828203905081811115611e6557611e64611d62565b5b92915050565b6000602082019050611e806000830184611a17565b92915050565b7f4c6f626279206e6f742061637469766500000000000000000000000000000000600082015250565b6000611ebc601083611ce5565b9150611ec782611e86565b602082019050919050565b60006020820190508181036000830152611eeb81611eaf565b9050919050565b7f4e6f7420696e206c6f6262790000000000000000000000000000000000000000600082015250565b6000611f28600c83611ce5565b9150611f3382611ef2565b602082019050919050565b60006020820190508181036000830152611f5781611f1b565b9050919050565b6000611f6982611751565b915060008203611f7c57611f7b611d62565b5b600182039050919050565b7f4e487b7100000000000000000000000000000000000000000000000000000000600052603160045260246000fd5b6000611fc1826116c4565b9150611fcc836116c4565b9250828201905080821115611fe457611fe3611d62565b5b92915050565b6000604082019050611fff6000830185611727565b61200c6020830184611727565b9392505050565b7f4f6e6c7920686f73742063616e20737461727400000000000000000000000000600082015250565b6000612049601383611ce5565b915061205482612013565b602082019050919050565b600060208201905081810360008301526120788161203c565b9050919050565b7f4e656564206174206c65617374203220706c6179657273000000000000000000600082015250565b60006120b5601783611ce5565b91506120c08261207f565b602082019050919050565b600060208201905081810360008301526120e4816120a8565b9050919050565b7f4c6f6262792066756c6c00000000000000000000000000000000000000000000600082015250565b6000612121600a83611ce5565b915061212c826120eb565b602082019050919050565b6000602082019050818103600083015261215081612114565b9050919050565b7f416c726561647920696e206c6f62627900000000000000000000000000000000600082015250565b600061218d601083611ce5565b915061219882612157565b602082019050919050565b600060208201905081810360008301526121bc81612180565b9050919050565b60006121ce82611751565b915060ff82036121e1576121e0611d62565b5b60018201905091905056fea264697066735822122050310a74d557c4df02164f6b3a7450fbb4d952130b8866cdf6a985b6d896986064736f6c634300081e0033",
  "linkReferences": {},
  "deployedLinkReferences": {},
  "immutableReferences": {},
  "buildInfoId": "stub-build-info"
}